{
  "contractName": "CreditContract",
  "abi": [
    {
      "constant": false,
      "inputs": [
        {
          "name": "_owner",
          "type": "address"
        }
      ],
      "name": "initCredit",
      "outputs": [
        {
          "name": "result",
          "type": "string"
        }
      ],
      "payable": false,
      "stateMutability": "nonpayable",
      "type": "function",
      "signature": "0x7505c887"
    },
    {
      "constant": false,
      "inputs": [
        {
          "name": "_owner",
          "type": "address"
        },
        {
          "name": "_credit",
          "type": "uint256"
        }
      ],
      "name": "setCredit",
      "outputs": [
        {
          "name": "result",
          "type": "string"
        }
      ],
      "payable": false,
      "stateMutability": "nonpayable",
      "type": "function",
      "signature": "0xb40ee8b4"
    },
    {
      "constant": true,
      "inputs": [
        {
          "name": "_owner",
          "type": "address"
        }
      ],
      "name": "getCredit",
      "outputs": [
        {
          "name": "credit",
          "type": "uint256"
        }
      ],
      "payable": false,
      "stateMutability": "view",
      "type": "function",
      "signature": "0x57344e6f"
    }
  ],
  "bytecode": "0x608060405234801561001057600080fd5b50610507806100206000396000f3fe608060405260043610610057576000357c0100000000000000000000000000000000000000000000000000000000900463ffffffff16806357344e6f1461005c5780637505c887146100c1578063b40ee8b41461018b575b600080fd5b34801561006857600080fd5b506100ab6004803603602081101561007f57600080fd5b81019080803573ffffffffffffffffffffffffffffffffffffffff16906020019092919050505061025f565b6040518082815260200191505060405180910390f35b3480156100cd57600080fd5b50610110600480360360208110156100e457600080fd5b81019080803573ffffffffffffffffffffffffffffffffffffffff1690602001909291905050506102aa565b6040518080602001828103825283818151815260200191508051906020019080838360005b83811015610150578082015181840152602081019050610135565b50505050905090810190601f16801561017d5780820380516001836020036101000a031916815260200191505b509250505060405180910390f35b34801561019757600080fd5b506101e4600480360360408110156101ae57600080fd5b81019080803573ffffffffffffffffffffffffffffffffffffffff169060200190929190803590602001909291905050506103b0565b6040518080602001828103825283818151815260200191508051906020019080838360005b83811015610224578082015181840152602081019050610209565b50505050905090810190601f1680156102515780820380516001836020036101000a031916815260200191505b509250505060405180910390f35b60008060008373ffffffffffffffffffffffffffffffffffffffff1673ffffffffffffffffffffffffffffffffffffffff168152602001908152602001600020600101549050919050565b6060816000808473ffffffffffffffffffffffffffffffffffffffff1673ffffffffffffffffffffffffffffffffffffffff16815260200190815260200160002060000160006101000a81548173ffffffffffffffffffffffffffffffffffffffff021916908373ffffffffffffffffffffffffffffffffffffffff16021790555060646000808473ffffffffffffffffffffffffffffffffffffffff1673ffffffffffffffffffffffffffffffffffffffff168152602001908152602001600020600101819055506040805190810160405280600781526020017f73756363657373000000000000000000000000000000000000000000000000008152509050919050565b6060828073ffffffffffffffffffffffffffffffffffffffff163373ffffffffffffffffffffffffffffffffffffffff16141515610456576040517f08c379a00000000000000000000000000000000000000000000000000000000081526004018080602001828103825260198152602001807f4f6e6c79206f776e65722063616e2063616c6c20746869732e0000000000000081525060200191505060405180910390fd5b826000808673ffffffffffffffffffffffffffffffffffffffff1673ffffffffffffffffffffffffffffffffffffffff168152602001908152602001600020600101819055506040805190810160405280600781526020017f73756363657373000000000000000000000000000000000000000000000000008152509150509291505056fea165627a7a72305820a114255f825b918c13cbd17baf3ff8e6574c367259a3adb09a2693e94b57aafb0029",
  "source": "pragma solidity >=0.4.22 <0.7.0;\n\ncontract CreditContract{\n    // Define a struct\n    struct Credit{\n        address owner;\n        uint credit;\n    }\n    \n    // Create credits to restore Credit\n    mapping (address=>Credit) credits;\n    \n    // Function modifier\n    modifier onlyOwner(address _owner){\n        require(\n            msg.sender == _owner,\n            'Only owner can call this.'\n        );\n        _;\n    }\n    \n    // Init a new credit\n    function initCredit(address _owner) public returns (string memory result){\n        credits[_owner].owner = _owner;\n        credits[_owner].credit = 100;\n        return \"success\";\n    }\n    \n    // Set credit of a user\n    function setCredit(address _owner, uint _credit) public onlyOwner(_owner) returns (string memory result){\n        credits[_owner].credit = _credit;\n        return \"success\";\n    }\n    \n    // Get credit of a user\n    function getCredit(address _owner) public view returns (uint credit){\n        return credits[_owner].credit;\n    }\n}",
  "sourcePath": "/Users/TS/Ursus/contracts/CreditContract.sol",
  "compiler": {
    "name": "solc",
    "version": "0.5.0+commit.1d4f565a.Emscripten.clang"
  },
  "schemaVersion": "3.0.8",
  "updatedAt": "2019-05-30T15:22:00.746Z",
  "devdoc": {
    "methods": {}
  },
  "userdoc": {
    "methods": {}
  }
}