{
  "contractName": "ExpressContract",
  "abi": [
    {
      "anonymous": false,
      "inputs": [
        {
          "indexed": false,
          "name": "owner_checked",
          "type": "bool"
        },
        {
          "indexed": false,
          "name": "expressman_checked",
          "type": "bool"
        }
      ],
      "name": "checkStatus",
      "type": "event",
      "constant": false,
      "outputs": [
        {
          "name": "result",
          "type": "string"
        }
      ],
      "payable": false,
      "stateMutability": "nonpayable",
      "signature": "0x1fb3657a2a10fc2e3318e8c7bb261bad92f7c39ef32b5cf57c7754bae4ee2d8a"
    },
    {
      "constant": false,
      "inputs": [
        {
          "name": "_id",
          "type": "uint256"
        },
        {
          "name": "_expressman",
          "type": "address"
        }
      ],
      "name": "init",
      "outputs": [
        {
          "name": "info",
          "type": "string"
        }
      ],
      "payable": true,
      "stateMutability": "payable",
      "type": "function",
      "signature": "0xb792e6ec"
    },
    {
      "constant": true,
      "inputs": [
        {
          "name": "_id",
          "type": "uint256"
        }
      ],
      "name": "getExpress",
      "outputs": [
        {
          "name": "id",
          "type": "uint256"
        },
        {
          "name": "owner",
          "type": "address"
        },
        {
          "name": "expressman",
          "type": "address"
        },
        {
          "name": "expressman_checked",
          "type": "bool"
        },
        {
          "name": "owner_checked",
          "type": "bool"
        },
        {
          "name": "cost",
          "type": "uint256"
        }
      ],
      "payable": false,
      "stateMutability": "view",
      "type": "function",
      "signature": "0x67b95563"
    },
    {
      "constant": false,
      "inputs": [
        {
          "name": "_id",
          "type": "uint256"
        }
      ],
      "name": "ownerCheck",
      "outputs": [
        {
          "name": "",
          "type": "string"
        }
      ],
      "payable": true,
      "stateMutability": "payable",
      "type": "function",
      "signature": "0x70497414"
    },
    {
      "constant": false,
      "inputs": [
        {
          "name": "_id",
          "type": "uint256"
        }
      ],
      "name": "expressmanCheck",
      "outputs": [
        {
          "name": "",
          "type": "string"
        }
      ],
      "payable": true,
      "stateMutability": "payable",
      "type": "function",
      "signature": "0xf21bd8ef"
    },
    {
      "constant": false,
      "inputs": [
        {
          "name": "_id",
          "type": "uint256"
        }
      ],
      "name": "finishExpress",
      "outputs": [
        {
          "name": "",
          "type": "string"
        }
      ],
      "payable": true,
      "stateMutability": "payable",
      "type": "function",
      "signature": "0xad1b5faa"
    }
  ],
  "bytecode": "0x608060405234801561001057600080fd5b50610b95806100206000396000f3fe60806040526004361061006d576000357c0100000000000000000000000000000000000000000000000000000000900463ffffffff16806367b95563146100725780637049741414610144578063ad1b5faa146101eb578063b792e6ec14610292578063f21bd8ef14610359575b600080fd5b34801561007e57600080fd5b506100ab6004803603602081101561009557600080fd5b8101908080359060200190929190505050610400565b604051808781526020018673ffffffffffffffffffffffffffffffffffffffff1673ffffffffffffffffffffffffffffffffffffffff1681526020018573ffffffffffffffffffffffffffffffffffffffff1673ffffffffffffffffffffffffffffffffffffffff1681526020018415151515815260200183151515158152602001828152602001965050505050505060405180910390f35b6101706004803603602081101561015a57600080fd5b8101908080359060200190929190505050610502565b6040518080602001828103825283818151815260200191508051906020019080838360005b838110156101b0578082015181840152602081019050610195565b50505050905090810190601f1680156101dd5780820380516001836020036101000a031916815260200191505b509250505060405180910390f35b6102176004803603602081101561020157600080fd5b81019080803590602001909291905050506106c2565b6040518080602001828103825283818151815260200191508051906020019080838360005b8381101561025757808201518184015260208101905061023c565b50505050905090810190601f1680156102845780820380516001836020036101000a031916815260200191505b509250505060405180910390f35b6102de600480360360408110156102a857600080fd5b8101908080359060200190929190803573ffffffffffffffffffffffffffffffffffffffff169060200190929190505050610831565b6040518080602001828103825283818151815260200191508051906020019080838360005b8381101561031e578082015181840152602081019050610303565b50505050905090810190601f16801561034b5780820380516001836020036101000a031916815260200191505b509250505060405180910390f35b6103856004803603602081101561036f57600080fd5b81019080803590602001909291905050506109a9565b6040518080602001828103825283818151815260200191508051906020019080838360005b838110156103c55780820151818401526020810190506103aa565b50505050905090810190601f1680156103f25780820380516001836020036101000a031916815260200191505b509250505060405180910390f35b6000806000806000806000808881526020019081526020016000206000015460008089815260200190815260200160002060010160029054906101000a900473ffffffffffffffffffffffffffffffffffffffff166000808a815260200190815260200160002060020160009054906101000a900473ffffffffffffffffffffffffffffffffffffffff166000808b815260200190815260200160002060010160019054906101000a900460ff166000808c815260200190815260200160002060010160009054906101000a900460ff166000808d81526020019081526020016000206003015484945083935095509550955095509550955091939550919395565b60608160008082815260200190815260200160002060010160029054906101000a900473ffffffffffffffffffffffffffffffffffffffff1673ffffffffffffffffffffffffffffffffffffffff163373ffffffffffffffffffffffffffffffffffffffff16141515610603576040517f08c379a00000000000000000000000000000000000000000000000000000000081526004018080602001828103825260218152602001807f4f6e6c792065787072657373206f776e65722063616e2063616c6c207468697381526020017f2e0000000000000000000000000000000000000000000000000000000000000081525060400191505060405180910390fd5b600160008085815260200190815260200160002060010160006101000a81548160ff0219169083151502179055507f1fb3657a2a10fc2e3318e8c7bb261bad92f7c39ef32b5cf57c7754bae4ee2d8a60008085815260200190815260200160002060010160009054906101000a900460ff1660008086815260200190815260200160002060010160019054906101000a900460ff166040518083151515158152602001821515151581526020019250505060405180910390a150919050565b60606001151560008084815260200190815260200160002060010160009054906101000a900460ff16151514801561072057506001151560008084815260200190815260200160002060010160019054906101000a900460ff161515145b156107f35760008083815260200190815260200160002060020160009054906101000a900473ffffffffffffffffffffffffffffffffffffffff1673ffffffffffffffffffffffffffffffffffffffff166108fc600080858152602001908152602001600020600301549081150290604051600060405180830381858888f193505050501580156107b5573d6000803e3d6000fd5b506040805190810160405280601181526020017f5472616e7366657220737563636573732e000000000000000000000000000000815250905061082c565b6040805190810160405280600e81526020017f5472616e73666572206661696c7300000000000000000000000000000000000081525090505b919050565b606082600080858152602001908152602001600020600001819055503360008085815260200190815260200160002060010160026101000a81548173ffffffffffffffffffffffffffffffffffffffff021916908373ffffffffffffffffffffffffffffffffffffffff1602179055508160008085815260200190815260200160002060020160006101000a81548173ffffffffffffffffffffffffffffffffffffffff021916908373ffffffffffffffffffffffffffffffffffffffff160217905550600080600085815260200190815260200160002060010160006101000a81548160ff021916908315150217905550600080600085815260200190815260200160002060010160016101000a81548160ff02191690831515021790555034600080858152602001908152602001600020600301819055506040805190810160405280600d81526020017f496e697420737563636573732e00000000000000000000000000000000000000815250905092915050565b60608160008082815260200190815260200160002060020160009054906101000a900473ffffffffffffffffffffffffffffffffffffffff1673ffffffffffffffffffffffffffffffffffffffff163373ffffffffffffffffffffffffffffffffffffffff16141515610aaa576040517f08c379a00000000000000000000000000000000000000000000000000000000081526004018080602001828103825260288152602001807f4f6e6c792065787072657373206578707265737365736d616e2063616e20636181526020017f6c6c20746869732e00000000000000000000000000000000000000000000000081525060400191505060405180910390fd5b600160008085815260200190815260200160002060010160016101000a81548160ff0219169083151502179055507f1fb3657a2a10fc2e3318e8c7bb261bad92f7c39ef32b5cf57c7754bae4ee2d8a60008085815260200190815260200160002060010160009054906101000a900460ff1660008086815260200190815260200160002060010160019054906101000a900460ff166040518083151515158152602001821515151581526020019250505060405180910390a15091905056fea165627a7a723058200f097008a217466330810cff93ee92f653dcd02a31bb255a9a391f110c7211ed0029",
  "source": "pragma solidity >=0.4.22 <0.7.0;\n\ncontract ExpressContract{\n    // Define a struct\n    struct Express{\n        uint id; // express id\n        bool owner_checked; //whether owner is checked\n        bool expressman_checked; //whether expressman is checked\n        address payable owner; // owner of express\n        address payable expressman; // expressmanof express\n        uint cost; // pay for expressman\n    }\n    \n    // Create expresses to store data\n    mapping (uint=>Express) expresses;\n    \n    // Define an event to watch changes\n    event checkStatus(bool owner_checked, bool expressman_checked);\n    \n    // Function modifiers\n    modifier onlyOwner(uint _id){\n        require(\n            msg.sender == expresses[_id].owner,\n            \"Only express owner can call this.\"\n        );\n        _;\n    }\n    \n    modifier onlyExpressman(uint _id){\n        require(\n            msg.sender == expresses[_id].expressman,\n            \"Only express expressesman can call this.\"\n        );\n        _;\n    }\n    \n    //init a new express\n    function init(uint _id, address payable _expressman) payable public returns(string memory info) {\n        expresses[_id].id = _id;\n        expresses[_id].owner = msg.sender;\n        expresses[_id].expressman = _expressman;\n        expresses[_id].owner_checked = false;\n        expresses[_id].expressman_checked = false;\n        expresses[_id].cost = msg.value;\n        return \"Init success.\";\n    }\n    \n    // Get express info\n    function getExpress(uint _id) public view returns (uint id, address owner, address expressman, bool expressman_checked, bool owner_checked, uint cost){\n        return (\n            expresses[_id].id, \n            expresses[_id].owner, \n            expresses[_id].expressman, \n            expresses[_id].expressman_checked,\n            expresses[_id].owner_checked,\n            expresses[_id].cost\n        );\n    }\n    \n    // Change owner check status to 'true'\n    function ownerCheck(uint _id) payable public onlyOwner(_id) returns (string memory) {\n        expresses[_id].owner_checked = true;\n        emit checkStatus(expresses[_id].owner_checked,expresses[_id].expressman_checked);\n    }\n    \n    // Change expressman check status to 'true'\n    function expressmanCheck(uint _id) payable public onlyExpressman(_id) returns (string memory) {\n        expresses[_id].expressman_checked = true;\n        emit checkStatus(expresses[_id].owner_checked,expresses[_id].expressman_checked);\n    }\n    \n    // Finish express delivering status, make trasaction to expressman\n    function finishExpress(uint _id) payable public returns (string memory){\n        if(expresses[_id].owner_checked == true && expresses[_id].expressman_checked == true){\n            expresses[_id].expressman.transfer(expresses[_id].cost);\n            return \"Transfer success.\";\n        }\n        else return \"Transfer fails\";\n    }\n}",
  "sourcePath": "/Users/TS/Ursus/contracts/ExpressContract.sol",
  "compiler": {
    "name": "solc",
    "version": "0.5.0+commit.1d4f565a.Emscripten.clang"
  },
  "schemaVersion": "3.0.8",
  "updatedAt": "2019-05-05T13:31:10.715Z",
  "devdoc": {
    "methods": {}
  },
  "userdoc": {
    "methods": {}
  }
}