{
  "contractName": "MyContract",
  "abi": [
    {
      "constant": true,
      "inputs": [],
      "name": "myFunction",
      "outputs": [
        {
          "name": "myNumber",
          "type": "uint256"
        },
        {
          "name": "myString",
          "type": "string"
        }
      ],
      "payable": false,
      "stateMutability": "pure",
      "type": "function",
      "signature": "0xc3780a3a"
    }
  ],
  "bytecode": "0x608060405234801561001057600080fd5b50610151806100206000396000f3fe608060405260043610610041576000357c0100000000000000000000000000000000000000000000000000000000900463ffffffff168063c3780a3a14610046575b600080fd5b34801561005257600080fd5b5061005b6100dd565b6040518083815260200180602001828103825283818151815260200191508051906020019080838360005b838110156100a1578082015181840152602081019050610086565b50505050905090810190601f1680156100ce5780820380516001836020036101000a031916815260200191505b50935050505060405180910390f35b60006060615ba08090506040805190810160405280600781526020017f48656c6c6f21250000000000000000000000000000000000000000000000000081525091509150909156fea165627a7a72305820f42b615625a210c037b30a4427cdf94568ef905bff2abf932e44adddad2623170029",
  "source": "pragma solidity >=0.4.22 <0.7.0;\n\ncontract MyContract {\n    function myFunction() public pure returns(uint myNumber, string memory myString) {\n        return (23456, \"Hello!%\");\n    }\n}",
  "sourcePath": "/Users/TS/Ursus/contracts/MyContract.sol",
  "compiler": {
    "name": "solc",
    "version": "0.5.0+commit.1d4f565a.Emscripten.clang"
  },
  "schemaVersion": "3.0.8",
  "updatedAt": "2019-05-30T15:21:59.128Z",
  "devdoc": {
    "methods": {}
  },
  "userdoc": {
    "methods": {}
  }
}